:020000040800F2
:1000000008200020C1010008170200080F020008A4
:100010001302000809020008DD02000800000000C9
:100020000000000000000000000000004302000883
:100030000D0200080000000041020008450200080F
:10004000DB010008DB010008DB010008DB01000820
:10005000DB010008DB010008DB010008DB01000810
:10006000DB010008DB010008DB010008DB01000800
:10007000DB010008DB010008DB010008DB010008F0
:10008000DB010008DB010008DB010008DB010008E0
:10009000DB010008DB010008DB010008DB010008D0
:1000A000DB010008DB010008DB010008DB010008C0
:1000B000DB010008DB010008DB010008DB010008B0
:1000C000DB010008DB010008DB010008DB010008A0
:1000D000DB010008DB010008DB010008DB01000890
:1000E000DB010008DB010008DB010008DB01000880
:1000F000DB010008DB010008DB010008DB01000870
:10010000DB010008DB010008DB010008DB0100085F
:10011000DB010008DB010008DB010008DB0100084F
:10012000DB010008DB010008DB010008DB0100083F
:10013000DB010008DB010008DB010008DB0100082F
:10014000DB010008DB010008DB010008DB0100081F
:1001500000000000DB010008DB010008DB010008F3
:10016000DB010008DB0100080000000000000000C7
:100170000000000000000000DB010008DB010008B7
:10018000DB01000800000000DB010008DB010008C3
:10019000000000000000000000000000000000005F
:1001A000DB010008DB010008DFF810D000F01AF8CE
:1001B00000480047E1030008AFF30080082000205A
:1001C0000648804706480047FEE7FEE7FEE7FEE7F1
:1001D000FEE7FEE7FEE7FEE7FEE7FEE74D0200086A
:1001E000A9010008064C074D06E0E06840F0010355
:1001F00094E8070098471034AC42F6D3FFF7D8FFD5
:1002000090050008B005000800BFFEE7704700BF7A
:10021000FEE700BFFEE7704710B5002807DA0A07BF
:10022000140E054A00F00F031B1FD45403E00A0705
:10023000130E024A135410BD18ED00E000E400E074
:100240007047704710B500F065F810BD10B51E4836
:10025000006840F001001C490860084640681B49DE
:10026000084019494860084600681949084016497D
:1002700008600846006820F480200860084640684E
:1002800014490840104948600846006820F0A05012
:1002900008600020C8624FF47F00886000200A498F
:1002A000803108600848D0F8900020F0805006495E
:1002B000903108604FF48000091D08600648091D50
:1002C000086000F039F910BD001002400C00FFE09A
:1002D000FFFFF6FEFFFF00DF1030002000BFFEE74B
:1002E00002E008C8121F08C1002AFAD170477047FF
:1002F000002001E001C1121F002AFBD1704700005D
:100300000349086000BF024909680029FBD1704712
:10031000000000200448006820B103480068401E27
:1003200001490860704700000000002041617047EB
:1003300001617047F0B5044616460025002201F021
:100340000F0501F0100707B1354300201EE001271B
:1003500087401F40C7B122684FEA800C0F2707FA79
:100360000CF7BA43870005FA07F73A43282904D166
:10037000012787401F40676105E0482903D1012715
:1003800087401F4027612260471CB8B20828DED38F
:10039000082022E0012787401F40E7B16268A0F1F2
:1003A00008074FEA870C0F2707FA0CF7BA43A0F1AA
:1003B0000807BF0005FA07F73A43282904D10127A7
:1003C00087401F40676105E0482903D10127874026
:1003D0001F4027616260471CB8B21028DAD3F0BD15
:1003E00000F0AEF800BF40F2046000F023F84FF4D4
:1003F0008043032210210E48FFF79CFF4FF48041F9
:100400000B48FFF793FF11E04FF480410848FFF7D6
:100410008FFF4FF4FA70FFF773FF4FF480410448E9
:10042000FFF784FF4FF4FA70FFF76AFFECE7000074
:1004300000100140064A02EB9011096800F01F030A
:1004400001229A401143024B03EB90121160704756
:100450000010024000200021334A126842F480322A
:10046000314B1A6000BF401C2F4A126802F4003161
:1004700019B94FF6FF729042F5D12B4A126802F477
:1004800000320AB900BFFEE7274A5268264B5A607D
:100490001A4652685A601A46526842F480625A609C
:1004A0001A465268214B1A401F4B5A601A4652682E
:1004B00042F424125A601A46D26A1D4B1A401A4B53
:1004C000DA621A46D26A1B4B1A43174BDA621A4693
:1004D000126842F080621A6000BF134A126802F08C
:1004E0000062002AF9D0104A126842F080720E4B66
:1004F0001A6000BF0C4A126802F00072002AF9D09C
:10050000094A526822F00302074B5A601A465268A1
:1005100042F002025A6000BF034A526802F0080229
:10052000002AF9D07047000000100240FFFFC0DF32
:1005300000F0FEFF3108010010B5FFF78BFF10BD82
:1005400010B5124800684FF47A71B0FBF1F4601EE8
:10055000B0F1807F01D301200FE0601E4FF0E02159
:1005600048610F214FF0FF30FFF756FE00204FF09B
:10057000E021886107200861002008B100BFFEE784
:100580000021481EFFF748FE10BD000004000020B7
:10059000B00500080000002008000000E00200088C
:1005A000B80500080800002000200000F002000844
:0805B00000000000000E270707
:04000005080001A945
:00000001FF
