:020000040800F2
:1000000010200020C1010008170200080F0200089C
:100010001302000809020008B102000800000000F5
:100020000000000000000000000000001B020008AB
:100030000D02000800000000190200081D0200085F
:10004000DB010008DB010008DB010008DB01000820
:10005000DB010008DB010008DB010008DB01000810
:10006000DB010008DB010008DB010008DB01000800
:10007000DB010008DB010008DB010008DB010008F0
:10008000DB010008DB010008DB010008DB010008E0
:10009000DB010008DB010008DB010008DB010008D0
:1000A000DB010008DB010008DB010008DB010008C0
:1000B000DB010008DB010008DB010008DB010008B0
:1000C000DB010008DB010008DB010008DB010008A0
:1000D000DB010008DB010008DB010008DB01000890
:1000E000DB010008DB010008DB010008DB01000880
:1000F000DB010008DB010008DB010008DB01000870
:10010000DB010008DB010008DB010008DB0100085F
:10011000DB010008DB010008DB010008DB0100084F
:10012000DB010008DB010008DB010008DB0100083F
:10013000DB010008DB010008DB010008DB0100082F
:10014000DB010008DB010008DB010008DB0100081F
:1001500000000000DB010008DB010008DB010008F3
:10016000DB010008DB0100080000000000000000C7
:100170000000000000000000DB010008DB010008B7
:10018000DB01000800000000DB010008DB010008C3
:10019000000000000000000000000000000000005F
:1001A000DB010008DB010008DFF810D000F01AF8CE
:1001B00000480047D5030008AFF30080102000205E
:1001C0000648804706480047FEE7FEE7FEE7FEE7F1
:1001D000FEE7FEE7FEE7FEE7FEE7FEE72102000896
:1001E000A9010008064C074D06E0E06840F0010355
:1001F00094E8070098471034AC42F6D3FFF7D8FFD5
:100200009C050008BC05000800BFFEE7704700BF62
:10021000FEE700BFFEE77047704770477047000079
:1002200010B51E48006840F001001C4908600846EF
:1002300040681B4908401949486008460068194948
:100240000840164908600846006820F480200860CD
:10025000084640681449084010494860084600684C
:1002600020F0A05008600020C8624FF47F00886032
:1002700000200A49803108600848D0F8900020F03A
:1002800080500649903108604FF48000091D0860D5
:100290000648091D086000F047F910BD0010024033
:1002A0000C00FFE0FFFFF6FEFFFF00DF1030002034
:1002B00000BFFEE702E008C8121F08C1002AFAD1F9
:1002C00070477047002001E001C1121F002AFBD1D6
:1002D000704700000146114A12884A434FF0E0235C
:1002E0005A6100229A611A46126942F001021A61AB
:1002F00000BF4FF0E022106900F001021AB100F4D3
:100300008032002AF5D04FF0E022126922F001027B
:100310004FF0E0231A6100229A6170470400002028
:100320004161704701617047F0B5044616460025EB
:10033000002201F00F0501F0100707B1354300203E
:100340001EE0012787401F40C7B122684FEA800C9A
:100350000F2707FA0CF7BA43870005FA07F73A4365
:10036000282904D1012787401F40676105E04829FB
:1003700003D1012787401F4027612260471CB8B284
:100380000828DED3082022E0012787401F40E7B17C
:100390006268A0F108074FEA870C0F2707FA0CF7ED
:1003A000BA43A0F10807BF0005FA07F73A43282926
:1003B00004D1012787401F40676105E0482903D128
:1003C000012787401F4027616260471CB8B2102890
:1003D000DAD3F0BD00F0C0F840F2046000F022F87B
:1003E0004FF48043032210210D48FFF79DFF4FF487
:1003F00080410B48FFF794FF11E04FF4804108481B
:10040000FFF790FF4FF4FA70FFF764FF4FF480415D
:100410000348FFF785FF4FF4FA70FFF75BFFECE747
:1004200000100140064A02EB9011096800F01F031A
:1004300001229A401143024B03EB90121160704766
:100440000010024000200021334A126842F480323A
:10045000314B1A6000BF401C2F4A126802F4003171
:1004600019B94FF6FF729042F5D12B4A126802F487
:1004700000320AB900BFFEE7274A5268264B5A608D
:100480001A4652685A601A46526842F480625A60AC
:100490001A465268214B1A401F4B5A601A4652683E
:1004A00042F424125A601A46D26A1D4B1A401A4B63
:1004B000DA621A46D26A1B4B1A43174BDA621A46A3
:1004C000126842F080621A6000BF134A126802F09C
:1004D0000062002AF9D0104A126842F080720E4B76
:1004E0001A6000BF0C4A126802F00072002AF9D0AC
:1004F000094A526822F00302074B5A601A465268B2
:1005000042F002025A6000BF034A526802F0080239
:10051000002AF9D07047000000100240FFFFC0DF42
:1005200000F0FEFF3108010010B5FFF78BFF10BD92
:10053000042808D14FF0E021096941F004014FF08F
:10054000E022116107E04FF0E021096921F0040188
:100550004FF0E0221161704710B56FF00400FFF713
:10056000E7FF0A4800680A49B0FBF1F00949087042
:100570000846007800EB4001C1EBC0104FF6FF7158
:1005800001EAC0000449088010BD000008000020F6
:1005900000127A000600002004000020BC050008BC
:1005A000000000200C000000B4020008C80500088C
:1005B0000C00002004200000C4020008000000001D
:0805C00000000000000E2707F7
:04000005080001A945
:00000001FF
